{
  "_format": "hh-sol-artifact-1",
  "contractName": "Router",
  "sourceName": "contracts/Router.sol",
  "abi": [
    {
      "anonymous": false,
      "inputs": [
        {
          "indexed": false,
          "internalType": "uint8",
          "name": "version",
          "type": "uint8"
        }
      ],
      "name": "Initialized",
      "type": "event"
    },
    {
      "anonymous": false,
      "inputs": [
        {
          "indexed": true,
          "internalType": "address",
          "name": "previousOwner",
          "type": "address"
        },
        {
          "indexed": true,
          "internalType": "address",
          "name": "newOwner",
          "type": "address"
        }
      ],
      "name": "OwnershipTransferred",
      "type": "event"
    },
    {
      "inputs": [
        {
          "internalType": "address",
          "name": "spender",
          "type": "address"
        },
        {
          "internalType": "uint256",
          "name": "amount",
          "type": "uint256"
        },
        {
          "internalType": "address",
          "name": "tokenAddress",
          "type": "address"
        }
      ],
      "name": "approveToken",
      "outputs": [],
      "stateMutability": "nonpayable",
      "type": "function"
    },
    {
      "inputs": [],
      "name": "fee",
      "outputs": [
        {
          "internalType": "uint256",
          "name": "",
          "type": "uint256"
        }
      ],
      "stateMutability": "view",
      "type": "function"
    },
    {
      "inputs": [
        {
          "internalType": "address",
          "name": "_treasury",
          "type": "address"
        }
      ],
      "name": "initialize",
      "outputs": [],
      "stateMutability": "nonpayable",
      "type": "function"
    },
    {
      "inputs": [],
      "name": "owner",
      "outputs": [
        {
          "internalType": "address",
          "name": "",
          "type": "address"
        }
      ],
      "stateMutability": "view",
      "type": "function"
    },
    {
      "inputs": [],
      "name": "renounceOwnership",
      "outputs": [],
      "stateMutability": "nonpayable",
      "type": "function"
    },
    {
      "inputs": [
        {
          "components": [
            {
              "internalType": "address",
              "name": "target",
              "type": "address"
            },
            {
              "internalType": "bytes",
              "name": "callData",
              "type": "bytes"
            }
          ],
          "internalType": "struct Router.Call[]",
          "name": "calls",
          "type": "tuple[]"
        }
      ],
      "name": "router",
      "outputs": [
        {
          "internalType": "uint256",
          "name": "blockNumber",
          "type": "uint256"
        },
        {
          "internalType": "bytes[]",
          "name": "returnData",
          "type": "bytes[]"
        }
      ],
      "stateMutability": "payable",
      "type": "function"
    },
    {
      "inputs": [
        {
          "internalType": "uint256",
          "name": "_fee",
          "type": "uint256"
        }
      ],
      "name": "setFee",
      "outputs": [],
      "stateMutability": "nonpayable",
      "type": "function"
    },
    {
      "inputs": [
        {
          "internalType": "address",
          "name": "_treasury",
          "type": "address"
        }
      ],
      "name": "setTreasury",
      "outputs": [],
      "stateMutability": "nonpayable",
      "type": "function"
    },
    {
      "inputs": [
        {
          "internalType": "address",
          "name": "newOwner",
          "type": "address"
        }
      ],
      "name": "transferOwnership",
      "outputs": [],
      "stateMutability": "nonpayable",
      "type": "function"
    },
    {
      "inputs": [],
      "name": "treasury",
      "outputs": [
        {
          "internalType": "address",
          "name": "",
          "type": "address"
        }
      ],
      "stateMutability": "view",
      "type": "function"
    }
  ],
  "bytecode": "0x608060405234801561001057600080fd5b506114fe806100206000396000f3fe6080604052600436106100915760003560e01c8063c4d66de811610059578063c4d66de81461015d578063c863bac114610186578063ddca3f43146101af578063f0f44260146101da578063f2fde38b1461020357610091565b806361d027b31461009657806369fe0e2d146100c1578063715018a6146100ea5780638da5cb5b146101015780639ecbdac41461012c575b600080fd5b3480156100a257600080fd5b506100ab61022c565b6040516100b89190610a5f565b60405180910390f35b3480156100cd57600080fd5b506100e860048036038101906100e39190610ac4565b610252565b005b3480156100f657600080fd5b506100ff6102a9565b005b34801561010d57600080fd5b506101166102bd565b6040516101239190610a5f565b60405180910390f35b61014660048036038101906101419190610dbf565b6102e7565b604051610154929190610f61565b60405180910390f35b34801561016957600080fd5b50610184600480360381019061017f9190610f91565b61043a565b005b34801561019257600080fd5b506101ad60048036038101906101a89190610fbe565b6105c8565b005b3480156101bb57600080fd5b506101c461065a565b6040516101d19190611011565b60405180910390f35b3480156101e657600080fd5b5061020160048036038101906101fc9190610f91565b610660565b005b34801561020f57600080fd5b5061022a60048036038101906102259190610f91565b6106ac565b005b606660009054906101000a900473ffffffffffffffffffffffffffffffffffffffff1681565b61025a610730565b600047905061029e6040518060400160405280600f81526020017f63757272656e7442616c323a2025730000000000000000000000000000000000815250826107ae565b816065819055505050565b6102b1610730565b6102bb600061084a565b565b6000603360009054906101000a900473ffffffffffffffffffffffffffffffffffffffff16905090565b60006060439150825167ffffffffffffffff81111561030957610308610b07565b5b60405190808252806020026020018201604052801561033c57816020015b60608152602001906001900390816103275790505b50905060005b8351811015610434576000808583815181106103615761036061102c565b5b60200260200101516000015173ffffffffffffffffffffffffffffffffffffffff168684815181106103965761039561102c565b5b6020026020010151602001516040516103af9190611097565b6000604051808303816000865af19150503d80600081146103ec576040519150601f19603f3d011682016040523d82523d6000602084013e6103f1565b606091505b50915091508161040057600080fd5b808484815181106104145761041361102c565b5b60200260200101819052505050808061042c906110dd565b915050610342565b50915091565b60008060019054906101000a900460ff1615905080801561046b5750600160008054906101000a900460ff1660ff16105b80610498575061047a30610910565b1580156104975750600160008054906101000a900460ff1660ff16145b5b6104d7576040517f08c379a00000000000000000000000000000000000000000000000000000000081526004016104ce906111a9565b60405180910390fd5b60016000806101000a81548160ff021916908360ff1602179055508015610514576001600060016101000a81548160ff0219169083151502179055505b61051c610933565b81606660006101000a81548173ffffffffffffffffffffffffffffffffffffffff021916908373ffffffffffffffffffffffffffffffffffffffff160217905550662386f26fc1000060658190555080156105c45760008060016101000a81548160ff0219169083151502179055507f7f26b83ff96e1f2b6a682f133852f6798a09c465da95921460cefb384740249860016040516105bb919061121b565b60405180910390a15b5050565b6105d0610730565b60008190508073ffffffffffffffffffffffffffffffffffffffff1663095ea7b385856040518363ffffffff1660e01b8152600401610610929190611236565b6020604051808303816000875af115801561062f573d6000803e3d6000fd5b505050506040513d601f19601f820116820180604052508101906106539190611297565b5050505050565b60655481565b610668610730565b80606660006101000a81548173ffffffffffffffffffffffffffffffffffffffff021916908373ffffffffffffffffffffffffffffffffffffffff16021790555050565b6106b4610730565b600073ffffffffffffffffffffffffffffffffffffffff168173ffffffffffffffffffffffffffffffffffffffff161415610724576040517f08c379a000000000000000000000000000000000000000000000000000000000815260040161071b90611336565b60405180910390fd5b61072d8161084a565b50565b61073861098c565b73ffffffffffffffffffffffffffffffffffffffff166107566102bd565b73ffffffffffffffffffffffffffffffffffffffff16146107ac576040517f08c379a00000000000000000000000000000000000000000000000000000000081526004016107a3906113a2565b60405180910390fd5b565b61084682826040516024016107c4929190611406565b6040516020818303038152906040527fb60e72cc000000000000000000000000000000000000000000000000000000007bffffffffffffffffffffffffffffffffffffffffffffffffffffffff19166020820180517bffffffffffffffffffffffffffffffffffffffffffffffffffffffff8381831617835250505050610994565b5050565b6000603360009054906101000a900473ffffffffffffffffffffffffffffffffffffffff16905081603360006101000a81548173ffffffffffffffffffffffffffffffffffffffff021916908373ffffffffffffffffffffffffffffffffffffffff1602179055508173ffffffffffffffffffffffffffffffffffffffff168173ffffffffffffffffffffffffffffffffffffffff167f8be0079c531659141344cd1fd0a4f28419497f9722a3daafe3b4186f6b6457e060405160405180910390a35050565b6000808273ffffffffffffffffffffffffffffffffffffffff163b119050919050565b600060019054906101000a900460ff16610982576040517f08c379a0000000000000000000000000000000000000000000000000000000008152600401610979906114a8565b60405180910390fd5b61098a6109bd565b565b600033905090565b60008151905060006a636f6e736f6c652e6c6f679050602083016000808483855afa5050505050565b600060019054906101000a900460ff16610a0c576040517f08c379a0000000000000000000000000000000000000000000000000000000008152600401610a03906114a8565b60405180910390fd5b610a1c610a1761098c565b61084a565b565b600073ffffffffffffffffffffffffffffffffffffffff82169050919050565b6000610a4982610a1e565b9050919050565b610a5981610a3e565b82525050565b6000602082019050610a746000830184610a50565b92915050565b6000604051905090565b600080fd5b600080fd5b6000819050919050565b610aa181610a8e565b8114610aac57600080fd5b50565b600081359050610abe81610a98565b92915050565b600060208284031215610ada57610ad9610a84565b5b6000610ae884828501610aaf565b91505092915050565b600080fd5b6000601f19601f8301169050919050565b7f4e487b7100000000000000000000000000000000000000000000000000000000600052604160045260246000fd5b610b3f82610af6565b810181811067ffffffffffffffff82111715610b5e57610b5d610b07565b5b80604052505050565b6000610b71610a7a565b9050610b7d8282610b36565b919050565b600067ffffffffffffffff821115610b9d57610b9c610b07565b5b602082029050602081019050919050565b600080fd5b600080fd5b600080fd5b610bc681610a3e565b8114610bd157600080fd5b50565b600081359050610be381610bbd565b92915050565b600080fd5b600067ffffffffffffffff821115610c0957610c08610b07565b5b610c1282610af6565b9050602081019050919050565b82818337600083830152505050565b6000610c41610c3c84610bee565b610b67565b905082815260208101848484011115610c5d57610c5c610be9565b5b610c68848285610c1f565b509392505050565b600082601f830112610c8557610c84610af1565b5b8135610c95848260208601610c2e565b91505092915050565b600060408284031215610cb457610cb3610bb3565b5b610cbe6040610b67565b90506000610cce84828501610bd4565b600083015250602082013567ffffffffffffffff811115610cf257610cf1610bb8565b5b610cfe84828501610c70565b60208301525092915050565b6000610d1d610d1884610b82565b610b67565b90508083825260208201905060208402830185811115610d4057610d3f610bae565b5b835b81811015610d8757803567ffffffffffffffff811115610d6557610d64610af1565b5b808601610d728982610c9e565b85526020850194505050602081019050610d42565b5050509392505050565b600082601f830112610da657610da5610af1565b5b8135610db6848260208601610d0a565b91505092915050565b600060208284031215610dd557610dd4610a84565b5b600082013567ffffffffffffffff811115610df357610df2610a89565b5b610dff84828501610d91565b91505092915050565b610e1181610a8e565b82525050565b600081519050919050565b600082825260208201905092915050565b6000819050602082019050919050565b600081519050919050565b600082825260208201905092915050565b60005b83811015610e7d578082015181840152602081019050610e62565b83811115610e8c576000848401525b50505050565b6000610e9d82610e43565b610ea78185610e4e565b9350610eb7818560208601610e5f565b610ec081610af6565b840191505092915050565b6000610ed78383610e92565b905092915050565b6000602082019050919050565b6000610ef782610e17565b610f018185610e22565b935083602082028501610f1385610e33565b8060005b85811015610f4f5784840389528151610f308582610ecb565b9450610f3b83610edf565b925060208a01995050600181019050610f17565b50829750879550505050505092915050565b6000604082019050610f766000830185610e08565b8181036020830152610f888184610eec565b90509392505050565b600060208284031215610fa757610fa6610a84565b5b6000610fb584828501610bd4565b91505092915050565b600080600060608486031215610fd757610fd6610a84565b5b6000610fe586828701610bd4565b9350506020610ff686828701610aaf565b925050604061100786828701610bd4565b9150509250925092565b60006020820190506110266000830184610e08565b92915050565b7f4e487b7100000000000000000000000000000000000000000000000000000000600052603260045260246000fd5b600081905092915050565b600061107182610e43565b61107b818561105b565b935061108b818560208601610e5f565b80840191505092915050565b60006110a38284611066565b915081905092915050565b7f4e487b7100000000000000000000000000000000000000000000000000000000600052601160045260246000fd5b60006110e882610a8e565b91507fffffffffffffffffffffffffffffffffffffffffffffffffffffffffffffffff82141561111b5761111a6110ae565b5b600182019050919050565b600082825260208201905092915050565b7f496e697469616c697a61626c653a20636f6e747261637420697320616c72656160008201527f647920696e697469616c697a6564000000000000000000000000000000000000602082015250565b6000611193602e83611126565b915061119e82611137565b604082019050919050565b600060208201905081810360008301526111c281611186565b9050919050565b6000819050919050565b600060ff82169050919050565b6000819050919050565b60006112056112006111fb846111c9565b6111e0565b6111d3565b9050919050565b611215816111ea565b82525050565b6000602082019050611230600083018461120c565b92915050565b600060408201905061124b6000830185610a50565b6112586020830184610e08565b9392505050565b60008115159050919050565b6112748161125f565b811461127f57600080fd5b50565b6000815190506112918161126b565b92915050565b6000602082840312156112ad576112ac610a84565b5b60006112bb84828501611282565b91505092915050565b7f4f776e61626c653a206e6577206f776e657220697320746865207a65726f206160008201527f6464726573730000000000000000000000000000000000000000000000000000602082015250565b6000611320602683611126565b915061132b826112c4565b604082019050919050565b6000602082019050818103600083015261134f81611313565b9050919050565b7f4f776e61626c653a2063616c6c6572206973206e6f7420746865206f776e6572600082015250565b600061138c602083611126565b915061139782611356565b602082019050919050565b600060208201905081810360008301526113bb8161137f565b9050919050565b600081519050919050565b60006113d8826113c2565b6113e28185611126565b93506113f2818560208601610e5f565b6113fb81610af6565b840191505092915050565b6000604082019050818103600083015261142081856113cd565b905061142f6020830184610e08565b9392505050565b7f496e697469616c697a61626c653a20636f6e7472616374206973206e6f74206960008201527f6e697469616c697a696e67000000000000000000000000000000000000000000602082015250565b6000611492602b83611126565b915061149d82611436565b604082019050919050565b600060208201905081810360008301526114c181611485565b905091905056fea2646970667358221220b107508b6010c9b87bd72b32c17dfea24b98aab85b8ccb6428098f027b8c6e4864736f6c634300080c0033",
  "linkReferences": {},
  "deployedLinkReferences": {}
}